:100000000C94F0000C9418010C9418010C94180135
:100010000C9418010C9418010C9418010C941801FC
:100020000C9418010C9418010C94830E0C94F20E8D
:100030000C9418010C9418010C9418010C941801DC
:100040000C9418010C9418010C9418010C941801CC
:100050000C9418010C9418010C9418010C942411A0
:100060000C9418010C9418010C9418010C941801AC
:100070000C9418010C9418010C9418010C9418019C
:100080000C9418010C9418010C9418010C9418018C
:100090000C9418010C9418010C9418010C9418017C
:1000A0000C9418010C9418010C941801080B000210
:1000B0000202000009040000010202000005240001
:1000C0001001052401010104240206052406000193
:1000D0000705810310004009040100020A00000026
:1000E00007050202400000070583024000000403E8
:1000F000090412010002EF02014041233680000191
:100100000102030141726475696E6F204C4C43001B
:1001100041726475696E6F204C656F6E6172646FB9
:1001200000F0F89C8E8783878E9CF8F00000FEFF1D
:100130000303030303070EFCF80000FEFF030303A1
:100140000303070EFCF80000FFFF000000000000A2
:1001500000FFFF0000FEFF8383838383C7EE7C38AC
:100160000000F8FC0E07030303070EFCF800003F35
:100170007FE0C08080C0E07F3FFFFF0101010101FF
:100180000101FFFF0000FFFF0C0C0C0C1C3E77E38D
:10019000C100007FFFC0C0C0C0C0E0703F1F0000B2
:1001A0001F3F70E0C0C0C0E0703F1F00007FFFC174
:1001B000C1C1C1C1E3773E1C00001F3F70E0C0C059
:1001C000C0E0703F1F000000000001FFFF010000C1
:1001D00000D5F08D14A1C881CFD9F1AF2000A111B5
:1001E00011241FBECFEFDAE0DEBFCDBF11E0A0E0EB
:1001F000B1E0E4ECFDE602C005900D92A23EB1072D
:10020000D9F729E0A2EEB1E001C01D92AB3EB207E2
:10021000E1F710E0C0EFD0E004C02197FE010E949A
:10022000DA36CF3ED107C9F70E9469160C94E03642
:100230000C940000AC01415051094F37510508F0B2
:1002400044C08F7099272FE08E309105A8F4FC01EF
:10025000E45DFE4F0C94DA363A013E01410144015F
:1002600047014A014D0150015301560159015C01FA
:100270005F0162012091F306822F08952091F40618
:10028000FBCF2091F506F8CF2091F606F5CF20910F
:10029000F706F2CF2091F806EFCF2091F906ECCFC8
:1002A0002091FA06E9CF20911F07E6CF2091200781
:1002B000E3CF20912107E0CF20912207DDCF2091CD
:1002C0002307DACF20912407D7CFAC01405851093A
:1002D000403831E0530728F4415D584FFA0120813E
:1002E000CBCF8130F0E89F07C8F0AC01455C554F9B
:1002F0004A38510540F42EEE4838510508F0BCCF7D
:10030000435E5E4FEBCF8F54964F813BF1E09F07EA
:1003100008F0B2CF8153984FFC01E1CF20E0ACCF81
:10032000FF920F931F93CF93DF930AEB17E0F8012F
:10033000C081D181CE010196918380830E941A01F0
:10034000F82ECE010296F801918380830E941A0153
:100350009F2DDF91CF911F910F91FF9008950F93E3
:100360001F93CF93DF938C01FB01EA016091C506D7
:1003700070E00E94C636C801861B970BBC016E0F49
:100380007F1F4091D7065091D806641775070CF46B
:1003900054C0A091D906B091DA06A40FB51FA817D2
:1003A000B9070CF44AC06A177B0724F06A1B7B0B61
:1003B000E61BF70B8417950734F4BA01681B790B19
:1003C000E61BF70BCA011E161F060CF036C0609123
:1003D000D5067091D606C617D7077CF1A091DB062B
:1003E000B091DC06A60FB71FCA17DB0734F5C61B92
:1003F000D70B841B950BE80FF91F50E12170803853
:100400009105B8F4C034D105A0F4BE0141E061FD0E
:1004100044E060FD440F62FD4295687F569FD00125
:100420001124A80FAF5FBD4F3C91222359F0342B0C
:100430003C930196E817F90711F7DF91CF911F91CF
:100440000F91089540953423F3CF0F931F93CF93CB
:10045000DF93EB01D80191E0988360E170E0FA014D
:100460007183608398E0F9019083082E000C990B4A
:100470008F5A994FFC01E154FF4FE081E83078F446
:10048000F0E0EB5BFD4F0C94DA364D025E02600249
:10049000650267026F027302750221E028838154AE
:1004A0009F4FFC0180818073883079F100F58823AB
:1004B00041F1DF91CF911F910F91089522E0EECF8E
:1004C00022E0288320E230E006C023E0E7CF22E0EC
:1004D000288320E430E0FA0131832083E0CF40E13B
:1004E000F9014083DCCF23E0ECCF40E2F9CF80314B
:1004F00081F08831F1F68091DF06880F880F880F30
:1005000002C08091DF068C93D4CF8091DF06880FE4
:10051000FACF8091DF06880F880FF5CF2F923F9298
:100520004F925F926F927F928F929F92AF92BF9203
:10053000CF92DF92EF92FF920F931F93CF93DF93AF
:10054000CDB7DEB7E8970FB6F894DEBF0FBECDBFCC
:100550002091FD063091FE062115310521F41092FF
:1005600000071092FF068091DD0618160CF442C0B9
:100570008091FF0690910007019690930007809369
:10058000FF06813C910508F44EC08091FD069091D4
:10059000FE0601969093FE068093FD0620910107CA
:1005A000309102072F5F3F4F3093020720930107DE
:1005B0008217930731F4859721F41092FE0610926A
:1005C000FD06E8960FB6F894DEBF0FBECDBFDF91F3
:1005D000CF911F910F91FF90EF90DF90CF90BF9040
:1005E000AF909F908F907F906F905F904F903F90D3
:1005F0002F90089583E02A30310508F482E080933B
:10060000DD066091DD06062E000C770BC9010E9405
:10061000B236019709F0B9CF2E5031092330310598
:1006200008F0A6CFB2CF8091C606811176C0B6E1A0
:10063000CB2EB7E0DB2EF12CE12C4424439410E1C7
:10064000612E712C08E0502EF60181916F018823F4
:1006500009F460C0868981FD5DC04A8A7A82698218
:10066000598A8091DF06880F880F89878E01075F7E
:100670001F4F9E012F5E3F4FAE014F5F5F4FBE0188
:100680006E5E7F4F8E2D0E942502C701880F991F35
:100690009C01245F384F590110E000E0460136EB21
:1006A000831A91088A89082E000C990B08171907DC
:1006B0008CF5F501208031804091FF0650910007B4
:1006C0005C8B4B8B6985062E000C770BF4018081C7
:1006D00090E00396A091DF064A2F9C014203F001AF
:1006E000439FF00D1124A981BA810A9FC0010B9F7D
:1006F000900D1A9F900D112491014B895C898E0FEA
:100700009F1F0E94AF010F5F1F4FCCCFEE24E394D9
:10071000F12C9ACFEA94EF28C9F78091C606C12C34
:10072000882309F406C28091C60681112ECF86EA7D
:1007300090E00E941A0190EFA92EA80E8091610608
:100740008D5F8FA387EA90E00E941A0120EFB22EFE
:10075000B80E809162068D5F89A7F0915F06FBA7B6
:1007600084EA90E00E941A0130EFC32EC80ED090A8
:10077000600685EA90E00E941A0180519091050779
:1007800096709CA72CE037E03C8F2B8FE12C1C8AC5
:100790001B8A01E010E0F12C312C212C4A2D50E075
:1007A00058A34F8F4E5F5F4F58AB4FA76B2D70E034
:1007B0007AA369A36E5F7F4F7AAB69ABEC2DF0E053
:1007C000FCA3EBA3282F30E03E8F2D8F4D2D50E062
:1007D0005E8B4D8B485F5F4F5CAB4BAB2D5031094F
:1007E0003EA32DA3512C412CEB89FC897396FEA7C7
:1007F000EDA72BA13CA12C5031093EAB2DAB5BA545
:10080000452F50E0588F4F8B485F5F4F58AF4FAB2D
:100810004114510409F093C2F09055060091580616
:10082000002341F0F09059062114310411F0F090AA
:100830005C0600E010E1E0910307F0910407FA8FF5
:10084000E98F2F2D212359F0FCA5F23009F0A1C228
:10085000EB8DFC8D0190F081E02DFA8FE98FE11096
:100860009FC28B899C89840D951D222309F4EAC0BF
:100870004091DF06E42FEE0FEE0F2091FD06309140
:10088000FE060E2E000CFF0B8E9F30018F9F700C0A
:100890009E9F700C11246FA578A96217730728F129
:1008A0008F8D98A1029728173907F8F07FA1C72EDE
:1008B000D12C842E042E000C9908C301B4010E948F
:1008C000B2365B01C616D70680F0CF01B4010E9494
:1008D000C63661507109A60EB71EAC14BD0428F0CF
:1008E0008091F70680688093F70689A99AA98217F4
:1008F000930728F189A19AA1029728173907F8F0E0
:1009000099A5C92ED12C842E042E000C9908C30160
:10091000B4010E94B2365B01C616D70680F0CF0143
:10092000B4010E94C63661507109A60EB71EAC1400
:10093000BD0428F08091F80680688093F8066BA1CA
:100940007CA12617370708F042C08DA99EA98217FF
:100950009307E8F5C42E042E000CDD08C301B60190
:100960000E94B2365B016F89788D6A157B0590F025
:10097000CF01B6010E94C63661507109A60EB71E9E
:100980008F89988DA816B90628F08091F5068068A1
:100990008093F506C301B6010E94B2365B018FA9B0
:1009A00098AD8617970798F0CF01B6010E94C6361A
:1009B00061507109A60EB71E8F89988D0596A816ED
:1009C000B90628F08091F50680688093F5066D8D54
:1009D0007E8D2617370709F4E8C18DA19EA128173F
:1009E000390709F4E2C16DA17EA12617370701F589
:1009F000C42E440FDD08C301B6010E94B2369B012C
:100A00004BA95CA94617570798F0CF01B6010E9481
:100A1000C63661507109260F371F8D899E8905964C
:100A20002817390728F08091F60680688093F6062B
:100A30004091FF0650910007298D3A8DBF01C301F7
:100A40000E94AF01002309F4D7C116955FEF451A44
:100A5000550A64E14616510409F0DACE2A94232897
:100A600009F05AC11092580690CD873009F03BC169
:100A7000000F000FE02EEE0CE00E51E0C51214C086
:100A800020915106822F837079F48091FF06909116
:100A900000078227817099276AEA70E002C0759585
:100AA00067958A95E2F7262248E0642E712C50E87B
:100AB000352E912C812C002E000C110B0E2C000CCD
:100AC000FF08822D83217F8D772309F40EC18823AF
:100AD000F1F04091FF06509100072091DF063D2D77
:100AE0002303C00111248E199F0927E030E0281943
:100AF0003909209FF001219FF00D309FF00D112446
:100B00002B893C89B8018E0F9F1F0E94AF0136943C
:100B10007FEF871A970A81E0681A710891F69D8D18
:100B2000992309F456C0E1E0CE1609F4FCCDCC249B
:100B3000C39401E00C25002E000C110BC8018A554E
:100B40009F4F0E941A01F82EC8018C559F4F0E949A
:100B50001A0161E0E3E6AE2EE6E0BE2EC61204C046
:100B600074E9A72E76E0B72EF50190819923D9F28A
:100B7000F801EF5AF94F908963E0562E590E8051D3
:100B800046849F012B533F4F3AA329A3AF01445200
:100B90005F4F5CA34BA390EF9F0D692F70E0788FA0
:100BA0006F8B6E5F7F4F7EA36DA3235231093A8F07
:100BB000298F482F50E05E8B4D8B4550510958A727
:100BC0004FA3642D70E07C8F6B8F685F7F4F7AA797
:100BD00069A788E0F5013196DE01199601900D9222
:100BE0008A95E1F7F501808181508083181684F49D
:100BF000950190E048E0F9013996D90111960190EC
:100C00000D924A95E1F79F5F285F3F4F981794F345
:100C100088E0FE013996DE01119601900D928A95C9
:100C2000E1F7D9802A813B813C8B2B8B2C803E8144
:100C30003F8F8F8148854D8F2091FD063091FE06B4
:100C4000E9A1FAA19081992301F1EBA1FCA1908186
:100C500091FD1BC04DA15EA142175307B0F04F8913
:100C6000588D425051092417350778F05D1468F00B
:100C70004D2D50E0485F5F4F5416150609F02CF4D7
:100C8000E98DFA8D9081906890834D895E89421735
:100C9000530710F16FA178A526173707E8F02D2D1F
:100CA00030E04D1468F0A901485F5F4FEB8DFC8D7B
:100CB0004E175F072CF09091FA0690689093FA0611
:100CC00049A55AA5421753073CF0D41428F0909137
:100CD000FA0690689093FA060091DF0687708530D7
:100CE00009F0C3CE000FE12CC8CE882309F40FCF42
:100CF0004091FF06509100072091DF066D2D2603DD
:100D0000F0011124EE19FF09089DC001099D900D05
:100D1000189D900D1124F4CE809105078170E82E66
:100D20006B897C896C5E7F4F7C8B6B8B8B8D9C8DF4
:100D300002969C8F8B8F22242394312C53CD64E018
:100D40004616510479F4F090560600915806002397
:100D5000F1F0F0905A062114310411F0F0905D0684
:100D600010E869CD7CE04716510409F064CDF0909D
:100D7000570600915806002341F0F0905B062114BD
:100D8000310411F0F0905E0600E011E054CD01E076
:100D9000E7CF40910607509107075A8F498F5FCDE3
:100DA0008DA59EA58419950960CDA42E042E000C56
:100DB000BB08C301B5010E94B2366B018D899E89C3
:100DC0008617970790F0CF01B5010E94C636615093
:100DD0007109C60ED71E6D897E89C616D70628F002
:100DE0008091F60680688093F6068D8D9E8D28177B
:100DF000390709F4FDCDF7CD110F28CE1092FE066C
:100E00001092FD069091FC0681FD05C0992341F0EA
:100E10001092FC060895911103C081E08093FC06B6
:100E200008951092FE061092FD061092020710928D
:100E3000010781FD42C08091FB06882339F11092A1
:100E4000FB068091C606811102C01092AF07809107
:100E5000E6069091E70601969093E7068093E606F2
:100E60006091540670E00E94B23621E0009709F0CC
:100E700020E02093C6061092630610929406892BF8
:100E800029F0809151068F5F8093510688E890E0A9
:100E90000E941A018F3F09F05DC09091E1069923ED
:100EA00009F44CC093E894BD87BD81EF8093800026
:100EB0001092880080E180938A008FB7F894409167
:100EC000FD015091FE016091FF01709100028FBF02
:100ED0008091E2069091E306A091E406B091E506C8
:100EE0000097A105B10531F084179507A607B7074C
:100EF00008F044C08091E10691E089278093E106E3
:100F0000E42FE37084EF91E0E89F9001E99F300DBA
:100F10001124C901330FAA0BBB0B4052514D6F4F27
:100F20007F4F840F951FA61FB71F8093E2069093F3
:100F3000E306A093E406B093E506089593E894BD14
:100F400087BD81EF8093800080E1809388001092BC
:100F50008A00B3CF83E884BD8FEF87BD81EF809394
:100F600080001092880010928A001092E20610927F
:100F7000E3061092E4061092E5069FCF8091FB06EF
:100F8000811103C081E08093FB0608950F931F93A6
:100F9000CF938C01C62F8C32910508F036C08A326F
:100FA000910508F032C0FC01E852F84F0C94DA3693
:100FB000020812081608050819081C081F082A0844
:100FC000350840084B084E085108540859085C0879
:100FD00005080508050805080508050805080508A9
:100FE000050805080508050805085F0865080508DF
:100FF0000508050805080508050805080508050889
:101000006B086E08862F0E941107005811090038DE
:10101000110520F4015D184FF801C083CF911F9195
:101020000F910895862F0E94FE06EFCF0E948E0238
:10103000ECCF60931007E9CF60931107E6CF81E012
:1010400090E0611102C090E080E090930D078093E2
:101050000C07DBCF81E090E0611102C090E080E0FE
:1010600090930F0780930E07D0CF81E090E061113D
:1010700002C090E080E09093070780930607C5CFF9
:1010800081E090E0611102C090E080E0909304075D
:1010900080930307BACF60930507B7CF60930A0721
:1010A000B4CF60930B07B1CF862F807F8093550616
:1010B000ACCF60935606A9CF60935706A6CF61FBCD
:1010C000882780F980931607A0CF61FB882780F9D5
:1010D000809317079ACF60932D0797CF60932E07C1
:1010E00094CF0F931F93CF93DF938C01BC0177278D
:1010F000CAEBD7E0888199810E94C60788819981CF
:10110000019799838883612F70E00E94C6078881C8
:101110009981019799838883DF91CF911F910F91D6
:1011200008952091C807222351F02091BC073091E7
:10113000BD072F5F3F4F3093BD072093BC07109230
:10114000C8072091BC073091BD074091CB074423CD
:1011500081F1BC016F707727A9014F705527460FA9
:10116000571F4A305105C4F45093C3074093C20738
:10117000207F33274091C2075091C307240F351FAA
:10118000807F9927280F391F2A39310544F430937D
:10119000BD072093BC0708954A5F5F4FE5CF2456F3
:1011A00031093093BD072093BC0781E08093C807C5
:1011B0000895280F391F2F3F310549F344F3332792
:1011C000F0CF2091C80721110AC02091BC073091AF
:1011D000BD07215031093093BD072093BC072091F2
:1011E000BC073091BD07A901481B590B47FB662777
:1011F00060F96093CE07B90168277927607877276F
:10120000F901E427F5276E237F23E1E0672B09F43A
:10121000E0E0E093CD0761E04115510509F060E0A1
:101220006093C90761E0FA01EE27EF2B09F060E057
:101230007091CB07772351F1A9014F705527FC011D
:10124000EF70FF274E1B5F0B207F3327807F99278E
:10125000F901E81BF90BCF0144FF03C046505109C7
:10126000019790FF02C0805691094F705527807FEB
:101270009927842B952B9093C3078093C207609383
:10128000C8079093BD078093BC0708956093C80773
:1012900055275093BD074093BC0708952F923F9266
:1012A0004F925F926F927F928F929F92AF92BF9276
:1012B000CF92DF92EF92FF920F931F93CF93DF9322
:1012C000CDB7DEB72A970FB6F894DEBF0FBECDBFFD
:1012D000F82EE62EC42EDD24D394DD8280E190E04A
:1012E0009A83898388E08C83DB828E010D5F1F4F98
:1012F0009E012C5F3F4FAE014F5F5F4FBE016B5FA2
:101300007F4F8F2D0E9425022D81022E000C330B62
:10131000390161E0661A710849805A804C2D50E00D
:1013200090E080E0AF2D0F2C000CBB0BBD01660FD1
:10133000771FFB01E45FF84F5F01DF24FD2DF170A3
:10134000FE83AF5AB94F8D0107541F4FBD01615441
:101350007F4F7A876987821793070CF055C06A011F
:10136000413A51051CF070EAC71AD108EE2069F124
:10137000992493948615970509F0912CF5016081C5
:101380007181F801308033FA332430F8E985FA8529
:101390002080F1101EC080906306F5E0F815ACF0D7
:1013A000F82DA8E0FA02F0011124F887EF83EC5938
:1013B000F94FC08272836183E3826E8164833582D8
:1013C000268297828394809263060196440D551D70
:1013D000C2CF80909406A5E0A815BCF3F82DA8E034
:1013E000FA02F0011124F887EF83EB56F94FC0821F
:1013F00072836183E3826E81648335822682978261
:10140000839480929406E1CF2A960FB6F894DEBFBB
:101410000FBECDBFDF91CF911F910F91FF90EF9045
:10142000DF90CF90BF90AF909F908F907F906F9004
:101430005F904F903F902F900895CF93DF936091EE
:10144000CE0720E8629FB00111248091C80790E088
:101450008062682B792B8091CD0720E4829FC001A8
:101460001124682B792B8091CB0728E0829FC00143
:101470001124682B792B8091CA0724E0829FC00138
:101480001124682B792B8091C90790E0880F991F50
:10149000682B792B7093C3076093C207CAEBD7E020
:1014A000888199810E94C6078881998101979983D3
:1014B0008883DF91CF910895E1E0F2E0A0E0B8E009
:1014C00000800EBC8111012C1197A0FDFDCF01926F
:1014D000B9F70DB408950895FC018091FC018823AB
:1014E00011F13FB7F89482E08093E9002091F20077
:1014F000822F90E01816190614F481E090E08823FA
:1015000039F0289844E64093FB014091F100408374
:10151000222339F02091F200211103C02BE6209301
:10152000E8003FBF08958FEF9FEF08952FB7F8941D
:1015300083E08093E9009091E800892F807295FF05
:1015400004C09091F20080E4891B2FBF0895809120
:10155000F30181110DC082E08093EF0184E080935C
:10156000F0011092F2011092F10181E08093F301F9
:101570008FEE91E008954091E9015091EA012091A8
:10158000E7013091E80142175307B4F49091E80065
:101590009570E1F39091E80092FD19C08093F100FD
:1015A0008091E9019091EA0101968F739927892B27
:1015B00019F48EEF8093E8008091E9019091EA019F
:1015C00001969093EA018093E90181E0089580E01B
:1015D0000895DF92EF92FF920F931F93CF93DF93C3
:1015E000D82E8A01EB017B01E40EF51ECE15DF0536
:1015F00059F0D7FE12C0FE0184910E94BB0A2196C9
:101600008111F4CF0FEF1FEFC801DF91CF911F9130
:101610000F91FF90EF90DF9008958881EECF0F93A8
:101620001F93CF93DF931F92CDB7DEB782E08983FC
:1016300042E450E06CEA70E080E80E94E90A0E940F
:10164000A70ADC0112960D911C910115110589F074
:10165000D801ED91FC910280F381E02DBE016F5F16
:101660007F4FC801099597FD04C0F80100851185D9
:10167000ECCF89810F90DF91CF911F910F91089549
:10168000615030F02091F100FC0120830196F8CFE9
:10169000289884E68093FB010895CF93DF931F92EF
:1016A000CDB7DEB76983DC01ED91FC910280F38157
:1016B000E02D41E050E0BE016F5F7F4F09950F9034
:1016C000DF91CF91089583E08093E9008091F2004B
:1016D000882319F08AE38093E80008950E94960A0F
:1016E00090E00895CF93DF931F92CDB7DEB7FC0152
:1016F0008485958597FD08C02FEF3FEF35872487B8
:101700000F90DF91CF910895CE0101960E946C0A4F
:10171000019719F4898190E0F3CF8FEF9FEFF0CF1D
:101720000F931F93CF93DF931F92CDB7DEB78C013A
:10173000FC018485958597FF0BC0CE0101960E9420
:101740006C0A019771F4898190E0F801958784878C
:10175000F801848595850F90DF91CF911F910F91AE
:1017600008958FEF9FEFF1CFFC018485958597FD5C
:101770000BC09FB7F89482E08093E9008091F2005B
:101780009FBF90E0019608959FB7F89482E0809300
:10179000E9008091F2009FBF90E008953FB7F89470
:1017A0008091E3019091E401A091E501B091E601FF
:1017B00026B5A89B05C02F3F19F00196A11DB11DAC
:1017C0003FBFBA2FA92F982F8827BC01CD01620FE8
:1017D000711D811D911D42E0660F771F881F991FA3
:1017E0004A95D1F708958F929F92AF92BF92CF9270
:1017F000DF92EF92FF926B017C010E94CE0B4B01B6
:101800005C01C114D104E104F104B9F00E94CE0BD3
:10181000681979098A099B09683E73408105910519
:1018200080F321E0C21AD108E108F10888EE880EA1
:1018300083E0981EA11CB11CE4CFFF90EF90DF90D5
:10184000CF90BF90AF909F908F9008958F929F926E
:10185000AF92BF92CF92DF92EF92FF920F931F93BE
:10186000CF93DF936C017B018A0180910B01882368
:1018700009F45CC08091FC01882309F457C0809171
:10188000ED0180FF05C08091E00082608093E00060
:10189000E801B12C8AEFA82E93E0892E2AE3922E3C
:1018A000209711F4BB20D9F10E94960A81110AC039
:1018B000AA94AA20D9F161E070E080E090E00E9453
:1018C000F30BEECF8C171D0611F00CF08C2F9FB789
:1018D000F8948092E9002091E80025FD02C09FBFA6
:1018E000DFCF282F30E0C21BD30BF701815020F04F
:1018F00041914093F100FACFE20EF31EBB2021F09C
:101900009092E800B12CEBCF8091E80085FDE7CF05
:101910009092E800BB24B394209709F3F3CF5D982D
:1019200084E68093EC01101611063CF081E090E013
:10193000F6019383828310E000E0C801DF91CF912C
:101940001F910F91FF90EF90DF90CF90BF90AF90DD
:101950009F908F9008952D9A0895BC0190E080E0AB
:101960000C94F30B8FB18095807F669B88601C9BE5
:1019700084600895FC0101900020E9F73197AF01E0
:10198000481B590BBC0181E096E00C94260C2F9269
:101990003F925F926F927F928F929F92AF92BF928F
:1019A000CF92DF92EF92FF920F931F93CF93DF932B
:1019B000FC01838194819093EC068093EB068581F2
:1019C0008093ED0686818093EE0687818093EF06F3
:1019D00080858093F00681858093F10682858093CF
:1019E000F2068FEF9FEF90930E0680930D0681EC29
:1019F00080937C0085B1806F85B984B1877E84B97E
:101A000084B1876E84B95E9A5F988AB1806D8AB915
:101A1000769A6E9881B3806F81BB899880B38D7000
:101A200080BB80E58CBD81E08DBD85E090E00E94AB
:101A3000AD0C5F9A85E090E00E94AD0C5E985C98DA
:101A4000E1EDF1E08EED91E024912EBD00000DB4AA
:101A500007FEFDCF31968E179F07B1F75C9A81E89C
:101A6000809364008091650081608093650080E0D0
:101A70000E945C0A0E94B20C87FF15C05C9885EA40
:101A80008EBD00000DB407FEFDCF5C9A2E982F98F6
:101A90002D988091640080628093640081E083BF10
:101AA000889513BEFCCF0E94B20C82FF48C02D98CF
:101AB0000E94B20C84788438E1F40E94AB0C88EC6C
:101AC00090E00E94AD0C2F9882E090E00E949C363E
:101AD0008F3F29F06FEF82E090E00E94A43684EF00
:101AE00091E00E94AD0C2F9A0E94B20C8478843849
:101AF000D9F30E94B20C84718431E1F40E94AB0CE2
:101B000088EC90E00E94AD0C2E9882E090E00E945C
:101B10009C36882329F060E082E090E00E94A436A1
:101B200084EF91E00E94AD0C2E9A0E94B20C847159
:101B30008431D9F388EC90E00E94AD0CB4CF0E94C0
:101B4000AB0C82E090E00E949C36882309F449C0E7
:101B50003E9A3F9A81E090E00E949C36C82F81E037
:101B600090E00E949C3681FF11C04C2F4470542E8F
:101B7000C2FD2E98C0EFDFEF08E010E00E94B20C2B
:101B800086FF32C02E9A2F9A0E94AB0C82E390E01F
:101B90000E94AD0C0E94B20C8111F8CF0E94B20CD1
:101BA00083FFFCCF6091520670915306772788EE31
:101BB00093E00E94C6366093EF0680E0DF91CF91FC
:101BC0001F910F91FF90EF90DF90CF90BF90AF905B
:101BD0009F908F907F906F905F903F902F900C948C
:101BE0005C0A3E983F98B6CF552029F0C430D10505
:101BF00011F42E9A2F9881E00E945C0A9E01D7FF73
:101C000004C0222733272C1B3D0B27703327CE011E
:101C1000D7FD079653E0959587955A95E1F7D7FF3D
:101C200005C00197F801E21BF30B9F01BC017695FB
:101C3000762F6627779567956F5F7D4FB0E0A0E0C0
:101C40003801621A730A8F3FFFEF9F070CF43BC005
:101C50007B0150E040E0FD01EF5DFE4F5F014B0175
:101C6000F0E88F0E911C8F3F980779F0F501E40F93
:101C7000F51FE491F0E06F01022E01C0CC0C0A9434
:101C8000EAF7F701D488CD28C48A2115310599F0E7
:101C9000F501E40FF51FE4916401C40ED51EF0E0D8
:101CA0001F01062C02C0359427940A94E2F7F6012E
:101CB00034882328248A4F5F5F4FFFEFEF1AFF0A13
:101CC0004835510581F60196A85ABF4F60587F4F9D
:101CD000A03BB10509F0B7CF80E00E945C0A8FE01D
:101CE00090E00E94AD0C2196C931D10509F046CF94
:101CF000552011F02F9A2D9880E991E00E94AD0CAB
:101D00000E94AB0C43CF1F920F920FB60F9211247B
:101D10008F939F938091E1009091E100937F909346
:101D2000E10083FF0FC01092E90091E09093EB0077
:101D30001092EC0092E39093ED001092FC0198E079
:101D40009093F00082FF22C093E09093E90090917D
:101D5000F200992319F09AE39093E8009091EC0136
:101D6000992341F09091EC0191509093EC019111E5
:101D700001C05D9A9091FB01992341F09091FB0184
:101D800091509093FB01911101C0289A84FF18C0D3
:101D90008091E2008E7E81608093E2008091E1007C
:101DA0008F7E8093E1008091ED018E7E8061809333
:101DB000ED019F918F910F900FBE0F901F9018957E
:101DC00080FFF7CF8091E2008E7E80618093E200F9
:101DD0008091E1008E7E8093E1008091ED018E7E06
:101DE0008160E5CF1F920F920FB60F921124CF9210
:101DF000DF92EF92FF920F931F932F933F934F9396
:101E00005F936F937F938F939F93AF93BF93EF9362
:101E1000FF93CF93DF93CDB7DEB76C97DEBFCDBF17
:101E20001092E9008091E80083FF25C068E0CE01B0
:101E300045960E94400B82EF8093E8008D8987FFD2
:101E400039C09091E80090FFFCCF982F907609F070
:101E500034C19E894F89588D2F89F88C911131C0DA
:101E6000803861F58091EE018093F1001092F100CD
:101E70008EEF8093E8006C960FB6F894DEBF0FBE2D
:101E8000CDBFDF91CF91FF91EF91BF91AF919F9126
:101E90008F917F916F915F914F913F912F911F9102
:101EA0000F91FF90EF90DF90CF900F900FBE0F90AB
:101EB0001F9018959EEF9093E800C7CF1092F10005
:101EC000D5CF913059F48111D3CF4130510581F6EE
:101ED0008091EE018D7F8093EE01CACF933049F45B
:101EE0008111C6CF4130510519F68091EE01826013
:101EF000F2CF953041F48091E80080FFFCCF20685C
:101F00002093E300B5CF963009F0A9C00B8D1C8D4E
:101F100022E01092E9001092EA011092E901F21217
:101F20002EC01092E8011092E7010E940F0B1F8251
:101F300099E09983FA8291E09E8390EA98879AEFDC
:101F400099872091E9013091EA01275F3F4F3C8357
:101F50002B838D831092E9001092EA011092E9011F
:101F60001093E8010093E70149E050E0BE016F5F84
:101F70007F4F80E00E94E90A0E940F0B79CF1093F7
:101F8000E8010093E7010E94A70ADC0112960D9177
:101F90001C910115110509F451C1D801ED91FC9175
:101FA0000480F581E02DBE016B5E7F4FC80109956D
:101FB000009709F03EC1F80100851185EACFF3E0F2
:101FC000FF120EC08F89882309F440C0823061F46B
:101FD00040E860E180E191E00E946E11811148CFFC
:101FE00081E28093EB0047CF813029F440E86BE039
:101FF00084E091E0F1CF833099F70E94A70ADC01D9
:102000001296ED90FC908E010F5F1F4F6801E11456
:10201000F10479F0D701ED91FC910680F781E02D74
:10202000B801C7010995080F111DF701E084F1847B
:10203000EECFD8011C92F60101900020E9F731970C
:10204000BF016C197D0940E0C601C6CF6EEE70E09D
:10205000FB01449150E080E80E94E90A09CF9730E3
:1020600009F4BECF983021F481E08093F10000CFD5
:10207000993009F0FDCE837009F0B2CFE7E1F1E0CD
:1020800081E031E096E32191222371F08093E90011
:102090003093EB00DF0111972C912093EC0090938B
:1020A000ED008F5F873079F78EE78093EA0010921A
:1020B000EA008F898093FC01DBCE8B8D9C8D109282
:1020C000E9001092EA011092E9019093E8018093EF
:1020D000E701898D811192C08E899D89913A49F4D9
:1020E000813209F07DCF47E050E064E071E080E0AC
:1020F000B3CF913209F074CF833269F48F89988D10
:10210000B0E0A0E08093000190930101A093020150
:10211000B0930301ADCE803269F48091E80082FF74
:10212000FCCF67E084E091E00E94400B8BEF80934E
:10213000E8009ECE823209F09BCE8F8980930B01FE
:10214000EEEFFFE7859194918B3F9C4D51F1E0E0DC
:10215000F8E08091040190910501A0910601B091F1
:102160000701803B9440A105B105F1F480910B017A
:1021700080FD1AC0EE3F8AE0F80789F587E797E708
:1021800091838083809160008093EB0188E19BE0E4
:102190000FB6F894A895809360000FBE90936000EE
:1021A00067CEEEEFFAE0D5CF8081918187379747F0
:1021B00009F05ECEA89580916000886180936000F0
:1021C0008091EB0180936000EE3F2AE0F20789F0F6
:1021D0008091FE0A9091FF0A9183808349CE80818D
:1021E00091818737980751F29093FF0A8093FE0AF6
:1021F000C5CF1092FF0A1092FE0A3ACE0E94A70A9B
:10220000DC0112960D911C910115110509F4E8CE1F
:10221000D801ED91FC910190F081E02DBE016B5E43
:102220007F4FC8010995811123CEF80100851185E2
:10223000EBCF181619060CF41BCED2CEF1E0FF122C
:10224000BECE62EF70E004CF1F920F920FB60F92D6
:1022500011242F933F938F939F93AF93BF938091BC
:10226000FD019091FE01A091FF01B091000230911B
:10227000E20123E0230F2D3758F50196A11DB11D72
:102280002093E2018093FD019093FE01A093FF0152
:10229000B09300028091E3019091E401A091E501E7
:1022A000B091E6010196A11DB11D8093E3019093C9
:1022B000E401A093E501B093E601BF91AF919F9136
:1022C0008F913F912F910F900FBE0F901F901895F7
:1022D00026E8230F0296A11DB11DD2CFEF92FF92E7
:1022E0000F931F93CF93DF93F82E192FE62E042F11
:1022F00081E0860F880F0E94BB0A83E00E94BB0A20
:10230000CF2DD12FEC0EFD2EF11CCE15DF05B9F02F
:1023100007FF13C0FE0184910E94BB0A182F80E0C2
:102320000E94BB0A812321968111EFCFDF91CF91CB
:102330001F910F91FF90EF9008958881EDCF81E07C
:10234000F5CF2F923F924F925F926F927F928F9232
:102350009F92AF92BF92CF92DF92EF92FF920F9334
:102360001F93CF93DF93E1E0F6E01382128288EEB1
:1023700093E0A0E0B0E084839583A683B78389EAE5
:1023800091E0918380838FEF9FEF95878487E0EEC4
:10239000F9E02BEB31E0318320831582168280E156
:1023A0008783148213821186E1E5F6E010824EE104
:1023B00050E05283418343E043831782C0900C0175
:1023C000D0900D01E0900E01F0900F01C686D786E7
:1023D000E08AF18A128A91E0928F92A392A792AB3F
:1023E00092AF909393061092940690939C069093CC
:1023F000A4069093AC069093B4069093BC06909379
:10240000C406C8E0C093C5061092C6061092C7065F
:102410001092C8061092C9061092CA061092CB06F6
:102420001092CC0663E070E07093D6066093D506F8
:1024300066E070E07093D8066093D70660E870E0BD
:102440007093DA066093D90660E470E07093DC065E
:102450006093DB064093DD061092DE069093DF0664
:102460001092E0061092E1061092E2061092E30646
:102470001092E4061092E5061092E7061092E60626
:102480003093E9062093E8061092ED061092EE06CE
:102490008093EF061092EC061092EB061092F10674
:1024A000E3EFF6E0DF012C2E1D922A94E9F710925B
:1024B000FB061092FC061092FE061092FD0610928A
:1024C00000071092FF061092020710920107109267
:1024D0000407109203071092050710920707109245
:1024E0000607109208071092090710920A07109227
:1024F0000B0710920D0710920C0710920F07109205
:102500000E071092100710921107109213071092E5
:1025100012071092150710921407909316079093C4
:102520001707109218071092190710921A071092A5
:102530001B0710921C072FEF20931D0737E33093E2
:102540001E0736E0E0E1F1E0AFE1B7E001900D9267
:102550003A95E1F710922507109226071092270767
:10256000109228071092290710922A0710922B0721
:1025700010922C0710922D0710922E079093AF0700
:102580001092B1071092B00760E070EF7093B3073C
:102590006093B2077093B5076093B4071092B707C2
:1025A0001092B6077093B9076093B8076FEF71E0A8
:1025B0007093BB076093BA079093CA07EFECF7E0FC
:1025C00061E172E0DF018B011D9201501040E1F7E3
:1025D0000CEF0093D0070093D10768E36093D20714
:1025E0003FE3F32EF092D3076093D4070093D5070F
:1025F0000093D6075CE1B52EB092D707D8E7D09309
:10260000D8077BEF7093D907ECE7DE2ED092DA077C
:10261000B092DB07FFE1CF2EC092DC07AEE35A2E6B
:102620005092DD0758E15093DE0739E13093DF0720
:102630003AE33093E007D092E1072093E2073FEDC1
:102640003093E307BEE06B2E6092E407B092E5079B
:102650005093E60714E2912E9092E707E4E6E093A8
:10266000E807E9E7E093E9072093EA072093EB07FF
:102670001EE41093EC076092ED07F4E0F093EE0790
:10268000C093EF07C093F007EBE6E093F107EFE7A5
:10269000E093F207E093F307E093F407A3E6A09337
:1026A000F507A093F6079092F707A6E2A093F80724
:1026B000AEE9A093F9072093FA072093FB07A2E75E
:1026C0004A2E4092FC07B0E7B093FD0710E210934A
:1026D000FE07A8E9A093FF07ACE5A093000850927D
:1026E00001082093020870930308B09304086093D4
:1026F000050850930608609307087EE1772E7092D4
:1027000008083093090850920A0860930B0838EFC4
:1027100030930C08D0920D0850930E08A0E6A093B9
:102720000F08B0931008D093110820931208D0938B
:102730001308B0931408A093150831EC30931808CF
:102740003EEFA32EA0921908D0921A08D0931B082E
:1027500070E3E72EE0921C08E0921D08E0921E084C
:102760004093200836E0832E8092210800932208AF
:10277000009323087CE3272E209224083CE030932A
:1027800025083093260872E070932708F0932808F4
:1027900030932908B0922A0800932B0800932C0844
:1027A00070922D0880922E0880932F088093300815
:1027B0008093310860933208D0923308A092340895
:1027C000A09235088093360800E4A02EA092370826
:1027D00010933808E092390860933A08F0923B0869
:1027E000F0923C08D0933D08A0933E08A0923F0889
:1027F000A0934008F0924108C092420870924308AA
:1028000070924408509345085093460803E800939B
:102810004808E093490850924A0870924B08309358
:102820004C0830934D0830934E080EE80093500842
:1028300004E8009351082093520820935308F09322
:1028400054086092550860925808F09359080FE8B0
:10285000502E50925A08E0935B0840925C0807E0C3
:1028600000935D0880935F080F2EF6E33F2EF02D56
:10287000309260080F2EFEE27F2EF02D70926108DC
:1028800030936208C09263080F2EF2EB7F2EF02D7A
:10289000709264080F2EF0EE7F2EF02D7092650876
:1028A000A0926608909267080F2EFCE24F2EF02D42
:1028B000409268080F2EFDE57F2EF02D709269087A
:1028C0000F2EFAE17F2EF02D70926A0870926B083D
:1028D000E0926C080F2EF0EF7F2EF02D70926D08B5
:1028E000A0936E0850936F080F2EFAE56F2EF02D0F
:1028F000609270080F2EFEE72F2EF02D20927108A7
:10290000609272085093730850937408509375083E
:10291000D093760854E35093770830927808609209
:102920007908D0937A0840927B0830937C08809293
:102930007D0830937E08C0937F085CE65093800842
:10294000B093810858EB509382085CED5093830854
:102950005EE4509384080093850880928608609313
:1029600087088093880870928908D0928A085FE46B
:10297000852E80928B0853EE50938C0870938D08AF
:102980005BE050939008D6E1D09391088093930830
:10299000209395089093960851E1D52ED0929708F0
:1029A00090939808209399085FE050939A08C092FA
:1029B0009B0850939C080F2EF0E56F2EF02D60922F
:1029C0009D080F2EFFE56F2EF02D60929E080F2EB2
:1029D000F1E56F2EF02D60929F082093A008E09201
:1029E000A108F092A2080F2EF1E3EF2EF02DE09255
:1029F000A3082093A408B093A508E093A6080F2E7F
:102A0000F1E76F2EF02D6092A7080F2EF0E9EF2E60
:102A1000F02DE092A8080F2EF0EB4F2EF02D4092F3
:102A2000A908B093AA082093AB08B1E9B093AC0809
:102A3000B1EBB093AD086092AE082093AF08BFE948
:102A4000B093B008BFEBB093B108E093B208C09365
:102A5000B3087093B4087093B5087093B6084093A8
:102A6000B708C093B808BDE1B093B9080F2EF5E0E0
:102A70006F2EF02D6092BA08B093C708B093C808C3
:102A8000D093C908D093CA085093CB085093CC0870
:102A9000B2E1B093D6088093D7088093D8083093DA
:102AA000D9083093DA080093DB080093DC08909390
:102AB000DF089093E0084093E20837E23093E308A0
:102AC0004093E4083AEE3093E508BCE3B093E6089F
:102AD00032E83093E70834E43093E8084093E9089B
:102AE0007093EA08F093EB084093ED087093EE08BA
:102AF000F093EF084093F1087093F208F093F30815
:102B00009093F6087093F7084093F8087092F908CC
:102B10008093FA088093FB088093FC088093FD085B
:102B20008093FE088093FF08809300098093010939
:102B30008093020980930309809304092093050977
:102B400060930909A0930D0910930E0910930F09C2
:102B500083E2809310092093110980E88093120981
:102B600080931309B0921709F093180920931D0957
:102B700000932A09C0922B09F0922C09E0932D09A9
:102B800020932E09A09337091093380991E290936E
:102B9000390920933A0980933E0980933F09809335
:102BA00040098093410900934509809246098FECC2
:102BB000809347095092480986EF80934909809392
:102BC0004A0980934B0985E780934C0980934D090E
:102BD00080934E098AE980934F0981E880935009D8
:102BE00099E9909351098AEA809352098DE980937B
:102BF00053092DE8209354099093550996EB90932F
:102C00005609809357099092580988E28093590990
:102C1000C0935A0910935B0988E480935D09A092E0
:102C20005E0984E580935F0988E58093600985E209
:102C30008093610989E28093620989E48093630942
:102C400085E58093640989E58093650988EA809326
:102C5000660988E880936709E8E9E0936809E092EB
:102C6000690981EA80936A0983E880936B0988EE99
:102C700080936C0988EC80936D0980EE80936E09D7
:102C800080EC80936F0989EE8093700982EE8093C7
:102C9000710981EC809372098FEF8093730980EF43
:102CA00080937D0950937E09D0927F09DF91CF9167
:102CB0001F910F91FF90EF90DF90CF90BF90AF905A
:102CC0009F908F907F906F905F904F903F902F904C
:102CD0000895CF93DF93CDB7DEB7A4970FB6F894DE
:102CE000DEBF0FBECDBF789484B5826084BD84B54D
:102CF000816084BD85B5826085BD85B5816085BDF7
:102D000080916E00816080936E00109281008091AE
:102D10008100826080938100809181008160809336
:102D2000810080918000816080938000809191007B
:102D300082608093910080919100816080939100E6
:102D4000809190008160809390008091C1008460A8
:102D50008093C1008091C10082608093C100809106
:102D6000C10081608093C1008091C3008160809325
:102D7000C3008091C00082608093C0008091C20037
:102D800081608093C20080917A00846080937A0091
:102D900080917A00826080937A0080917A008160CD
:102DA00080937A0080917A00806880937A001092F4
:102DB000FC011092EE011092ED018091D70081602C
:102DC0008093D70080EA8093D80089B5806189BD5F
:102DD00089B5826089BD89B5282F21702CA380FF19
:102DE000FACF61E070E080E090E00E94F30B809108
:102DF000D8008F7C80618093D8008091E000807F34
:102E00008093E0008091E1008E7E8093E1008DE070
:102E10008093E200559A209A8BEB91E09A83898304
:102E20008091E3099091E4099D838C838091E50969
:102E30008E838091E6098F838091E709888780914E
:102E4000E80989878091E9098A878091EA098B8757
:102E5000CE0101960E94C70CE0EF2E2E312C7FE0B0
:102E6000472E512C8FB7F8944091FD015091FE01EF
:102E70006091FF01709100028FBF8091E809942F4B
:102E8000981B8091E909882359F09093EA091092E0
:102E9000E90980E090E0892B29F30E940000DFCF50
:102EA0002091E709921740F49F5F921790F781E015
:102EB00083BF889513BEEDCF91E09093E9094093CD
:102EC000E8092091E3093091E4092F5F3F4F3093E7
:102ED000E4092093E309E1E0F2E081118FEF00249F
:102EE00081938193819381930394D1F79093AF075A
:102EF00035E0632E712C44E0842E912CEE24EA946C
:102F0000F12CCC24C394D12C8091AF07882311F4E9
:102F10000C9497368091C7068093CD068091C806A1
:102F20008093CE068091CA068093CF068091C90611
:102F30008093D0068091CB068093D1068091CC06F9
:102F40008093D2060E94B20C881F8827881F809326
:102F5000C7060E94B20C829581708093C8060E94B9
:102F6000B20C86FB882780F98093CA060E94B20CB7
:102F700085FB882780F98093C9060E94B20C83FBE9
:102F8000882780F98093CB060E94B20C91E0382FFD
:102F9000347082FF90E09093CC069091CB068091A4
:102FA0001E07332309F4E7C02091D206222309F437
:102FB000E2C0992309F4DFC08E7F80931E0788E06A
:102FC00080935F0680E98093600680911E072091C0
:102FD000C706332309F4D3C03091D206332309F452
:102FE000CEC0222309F4CBC08D7F80931E0788E0DA
:102FF00080935F0680E980936006992309F4C3C03B
:103000008091E106E4E0F0E0811102C0E5E0F0E04B
:10301000E15EF84F80818F77808390911D07222396
:1030200009F4BEC08091E106882309F4B7C080E1AD
:103030008095892380931D0790911D078091C80674
:10304000882309F4B3C08091E106882309F4ACC059
:1030500080E28095892380931D0790911D078091C0
:10306000C906882309F4A8C08091E106882309F4E1
:10307000A1C080E48095892380931D0790911D074E
:103080008091CA06882309F49DC08091E1068823B7
:1030900009F496C080E88095892380931D0780916C
:1030A000CA07811112C090E080E00E9471088091EF
:1030B000B8079091B9070E9471088091B00790916C
:1030C000B1079093B9078093B8078091B8079091A2
:1030D000B9078C30E3EF9E0711F40C94A92B08F08C
:1030E000FCC5833A21EF920711F40C94B32608F043
:1030F00076C38037F0EF9F0711F40C94822308F019
:10310000FBC08332E0EF9E0711F40C940E2308F00D
:1031100078C0873120EF920711F40C94EA2208F06E
:1031200055C08A30F0EF9F0711F40C94CA22843105
:1031300020EF920711F40C94DE228115904F09F0D4
:10314000E9C281E08093CA071092CB07F092BB07D7
:10315000E092BA078DE590E09093BF078093BE0799
:103160008AE090EF0E9471088DEB95EF9093B9077C
:103170008093B807C9CE816080931E0726CF8260F6
:1031800080931E073ACF809124078068809324079C
:10319000809123078068809323073FCF8CA148CF7D
:1031A000916190931D0748CF82E053CF9262909334
:1031B0001D0753CF84E05ECF946490931D075ECFCC
:1031C00088E069CF986890931D0769CF8D31F0EF43
:1031D0009F0711F40C94F622803220EF920711F42D
:1031E0000C9402238A31904F09F094C28DE190EF44
:1031F0000E94710882E795EF9093B9078093B80712
:1032000083CE8F32F0EF9F0711F40C943223D8F461
:103210008932E0EF9E0711F40C941A238C32F0EF00
:103220009F0711F40C9426238632904F09F072C246
:1032300089E290EF0E94710889EA92EF9093B907B2
:103240008093B80761CE8435E0EF9E0711F40C94AB
:1032500040238C35F0EF9F0711F40C944A238233FE
:10326000904F09F057C286E890E00E941A0190E062
:1032700001968115F1E09F0711F40C943A23909385
:10328000C7078093C6078091C6078093350782E001
:1032900090E09093BD078093BC070E948E028091BE
:1032A000BC070E94FE060E948E020E948E020E94AF
:1032B0008E028091BC070E9411070E948E020E941C
:1032C0008E021092BD071092BC070E948E02809160
:1032D000BC070E9411078BE290E09093BD0780939A
:1032E000BC071092C9071092CE070E9490019093DC
:1032F000B9078093B80708CE8732E1EF9E0711F433
:103300000C94072508F0BBC1823F20EF920711F40F
:103310000C946D2408F038C18D3CF0EF9F0711F438
:103320000C94E4238F3D20EF920711F40C941A249F
:103330008338904F09F0EEC10E948E028EED90E02E
:103340000E941A01282F30E03093BD072093BC075C
:1033500091E09093580680935A0682EE90E00E9486
:103360001A0190E09093C1078093C0078B539A4055
:103370000E941A01807F282F30E03093BD072093F0
:10338000BC0780938D0780EE90E00E941A0190E0C8
:103390009093C1078093C0078B539A400E941A01F3
:1033A000182F1F70812F90E09093BD078093BC076A
:1033B0008EED90E00E941A01812B282F30E030938F
:1033C000BD072093BC0780938D078FED90E00E948E
:1033D0001A01282F30E03093BD072093BC0780935B
:1033E0005D0683EE90E00E941A0190E09093C10781
:1033F0008093C0078B539A400E941A01807F282F28
:1034000030E03093BD072093BC0780938E0781EE98
:1034100090E00E941A0190E09093C1078093C0074A
:103420008B539A400E941A01182F90E09093BD0789
:103430008093BC0787E890E00E941A01812390E006
:103440009093BD078093BC070E948E020091BC0739
:103450001091BD078FED90E00E941A01082B109388
:10346000BD070093BC0700938E078EED90E00E948D
:103470001A0190E09093BD078093BC078091BE072E
:103480009091BF07009721F41092BD071092BC07DE
:103490002091BC0731E03093580620935A060197DB
:1034A00099279093BF078093BE0721E0803891054C
:1034B0000CF420E02093CE078038910514F00C9492
:1034C000B62380EE90E00E941A0190E001968115EB
:1034D00021E0920711F40C94CC239093C7078093BA
:1034E000C6078091C60780938F0782EE90E00E9406
:1034F0001A0190E001968115E1E09E0711F40C9409
:10350000D2239093C7078093C6078091C607809304
:10351000910781EE90E00E941A0190E001968115DA
:10352000F1E09F0711F40C94D8239093C707809380
:10353000C6078091C6078093900783EE90E00E94B3
:103540001A0190E00196811521E0920711F40C9484
:10355000DE239093C7078093C6078091C6078093A8
:1035600092078FED90E00E941A01282F30E03093EF
:10357000BD072093BC0780935D0683E890EF90938E
:10358000B9078093B807C0CC8C30F1EF9F0711F4D6
:103590000C948324843121EF920711F40C94AE240F
:1035A000843F904F09F0B6C00E948E026091BC0724
:1035B0007091BD076115710529F040915F0680E0AB
:1035C0000E944E0987EA90E00E941A01182F90E0AD
:1035D0009093BD078093BC0784EB90E00E941A0192
:1035E0008127282F2C7F30E03093BD072093BC0724
:1035F00091E0232B09F090E09093C907881F88275A
:10360000881F8093CE070E941D0A86EA90E00E94E0
:103610001A01182F90E09093BD078093BC0784EBAC
:1036200090E00E941A0181278C7F90E09093BD0763
:103630008093BC0721E0892B09F020E02093C90783
:103640000E941D0A84EB90E00E941A01282F30E0AE
:103650003093BD072093BC0791E0203831050CF46E
:1036600090E09093CE072038310514F00C947C2420
:103670008CE091EF9093B9078093B80745CC8E36D4
:10368000F1EF9F0711F40C94E325C0F58B33E1EFC4
:103690009E0711F40C944B258735F1EF9F0711F429
:1036A0000C94A9258932914FA9F582E890E00E94F7
:1036B0001A01282F30E03093C7072093C607982FB0
:1036C000991F9927991F9093CE0786FB882780F929
:1036D0008093CD07409160066091BC0781E00E9415
:1036E0004E098091CE07882311F40C9416258BE3A4
:1036F00091EF9093B9078093B80706CC8238E1EF39
:103700009E0711F40C943826A8F58037914F11F4D8
:103710000C94EF2588ED91E00E94BA0C4091B80717
:103720005091B90770E060E019A2CE0181968A013C
:103730009B010F7011272227332724E07695679588
:10374000579547952A95D1F70A3014F00C94943682
:10375000005DFC010293CF01411551056105710522
:1037600031F7EF2B11F00E94BA0C87EC91E00E9428
:10377000BA0CCACB8239E1EF9E0711F40C9477267C
:103780008D39914F39F689E890E00E941A01282F6F
:1037900030E03093C7072093C607982F991F9927C9
:1037A000991F9093CE0786FB882780F98093CD07D9
:1037B0004091BC075091BD072423352381E0232B82
:1037C00009F080E08093C907992311F40C94A12695
:1037D00081EF91EF9093B9078093B80795CB80352F
:1037E00022EF920711F40C94932808F008C1843F4B
:1037F000F1EF9F0711F40C94722708F072C0803D1E
:10380000E1EF9E0711F40C945827D8F4883A21EF81
:10381000920711F40C94C0268B3BE1EF9E0711F444
:103820000C94FD26853A914F09F074CF88EA91EF08
:103830000E9471088DEB95EF9093B9078093B807BC
:1038400063CB813F980709F445C0823FE1EF9E07B3
:1038500011F40C946E27833D914F09F05BCF82E306
:103860008093540786E890E09093BD078093BC074F
:1038700086E88093530783EA90E00E941A01282F7C
:1038800030E03093C7072093C607982F991F9927D8
:10389000991F9093CE0786FB222720F92093CD070E
:1038A000867821E009F020E02093C907911190CF9C
:1038B00086E88093540788E08093450780E290E093
:1038C0009093BD078093BC071092C9071092CE0752
:1038D0000E948E020E9490019093B9078093B807CE
:1038E00013CB853222EF920711F40C941F2850F568
:1038F0008C31F2EF9F0711F40C9403288E3122EFE4
:10390000920711F40C9409288431924F09F002CFE8
:1039100083E890E00E941A01282F30E03093C70717
:103920002093C60791E0207486FF90E09093CD0726
:1039300021110C94F3278CE192EF9093B9078093B7
:10394000B807E2CA8A32F2EF9F07A1F08D3322EF67
:10395000920711F40C9437288932924F09F0DACE8D
:103960008091BE079091BF07019799279093BF0759
:103970008093BE070091BE071091BF07C80183570F
:103980009F4F0E941A01887090E0959587959595B4
:1039900087959093BD078093BC0700938007109292
:1039A000C80781ED90E00E941A0190E00E94910802
:1039B0008091BC079091BD079093C1078093C00789
:1039C00088559F4F0E941A0190E09093BD07809305
:1039D000BC0721E0803891050CF420E02093CE074D
:1039E00021E02093C8078038910514F40C94352801
:1039F0008DE392EF9093B9078093B80785CA893A0F
:103A0000F2EF9F0711F40C94E52908F0E3C0803928
:103A1000E2EF9E0711F40C94A92908F072C08A37CE
:103A200022EF920711F40C940A298C37E2EF9E07DB
:103A300011F40C9413298435924F09F06BCE009148
:103A4000BE071091BF0704551F4FC8010E941A01FD
:103A500090E001968115F1E09F0711F40C94BC28C9
:103A60009093C7078093C6076091C6077091C707F8
:103A7000C8010E94C6078091BE079091BF078B5670
:103A80009F4F0E941A018F7090E09093BD07809322
:103A9000BC071092C80781EB90E00E941A0190E0E9
:103AA0000E9491088091BC079091BD079093C10737
:103AB0008093C00789509A400E941A01282F30E055
:103AC0003093BD072093BC0780935F0782E890E0A6
:103AD0000E941A01282F30E03093C7072093C607B1
:103AE00091E0207486FF90E09093CD07222311F49B
:103AF0000C94C2288AE792EF9093B9078093B80795
:103B000003CA803A22EF920771F1883AE2EF9E07EA
:103B100011F40C94DD298839924F09F0FBCD89ED21
:103B200090E09093BD078093BC0784ED90E00E94E5
:103B30001A01282F30E03093C7072093C607982F2B
:103B4000991F9927991F9093CE0786FB882780F9A4
:103B50008093CD0791110C94A12988E290E0909375
:103B6000BD078093BC076091BC077091BD07809131
:103B7000BE079091BF078C559F4F0E94C60782E0F9
:103B800090E09093C7078093C6078091BE079091FD
:103B9000BF0721E0823091050CF420E02093C80794
:103BA00021E08230910509F020E02093C90721E04F
:103BB000823091050CF020E02093CE0782309105F1
:103BC00014F40C94D62988EA92EF9093B907809365
:103BD000B8079AC9843D22EF920711F40C947F2A0A
:103BE00008F043C08B3CF2EF9F0711F40C94492A74
:103BF0008C3C22EF920711F40C94512A8B3B924F8C
:103C000009F088CD8091BE079091BF07EEE08E2726
:103C10009093BF078093BE078091C0079091C10722
:103C200023E0880F991F2A95E1F799279093BD0704
:103C30008093BC072FE330E03093C7072093C6077B
:103C400021E08F3391050CF020E02093CE071092F5
:103C5000C8078F33910514F00C94402A8BEC92EF37
:103C60009093B9078093B8074FC9893FF2EF9F0738
:103C700011F40C94442B00F58A3D924F09F04ACD83
:103C80008AE890E00E941A0190E09093BD0780932B
:103C9000BC0781E08093C80782E090E00E94E108C1
:103CA0008091C80781110C94B12A8CE093EF909316
:103CB000B9078093B80728C98115F3EF9F0711F45E
:103CC0000C946C2B8B30934F09F024CD0E94900103
:103CD0009093B9078093B80717C98435E4EF9E071E
:103CE00011F40C94493108F0B3C18F3B23EF9207D4
:103CF00011F40C94CE2E08F0E0C08E36F3EF9F073F
:103D000011F40C94412D08F074C08C33E3EF9E073E
:103D100011F40C94642C50F58C3123EF920711F4BC
:103D20000C94BE2B8833E3EF9E0711F40C94322CD5
:103D30008631934F09F0EECC88E890E00E941A019A
:103D4000282F30E03093C7072093C607881F8827A5
:103D5000881F8093CE07882311F40C94BA2B8CE132
:103D600093EF9093B9078093B807CEC8883523EFB7
:103D7000920711F40C94D92C8B36E3EF9E0711F4C3
:103D80000C94352D8934934F09F0C4CC0091BE07B3
:103D90001091BF0703571F4FC8010E941A0190E0FE
:103DA00001968115E1E09E0711F40C94A22C9093EA
:103DB000C7078093C6076091C6077091C707C801FF
:103DC0000E94C6078091C6079091C70721E08038FE
:103DD00091050CF420E02093CE078038910514F46F
:103DE0000C94A82C8BE693EF9093B9078093B807B7
:103DF0008BC8823A23EF920711F40C944A2E30F5C7
:103E00008038F3EF9F0711F40C948B2D8C3823EF3F
:103E1000920711F40C94C72D8B37934F09F07ACC8D
:103E200081E08093C80785E890E00E941A0190E045
:103E30000E94E1088091CE0781110C948B2D88E5BA
:103E400093EF9093B9078093B8075EC8843BF3EF74
:103E50009F0709F1873B23EF920711F40C94912EF1
:103E60008E3A934F09F056CC1092BD071092BC07C2
:103E70008091BE079091BF0770E060E087569F4F2A
:103E80000E94C607F092BD07E092BC071092C907D6
:103E900081E08093CE076091BC077091BD0780914F
:103EA000BE079091BF0788960E94C6070E949001A6
:103EB0009093B9078093B80727C8803FF3EF9F0717
:103EC00011F40C94862F08F047C08B3CE3EF9E075B
:103ED00011F40C94EE2EC0F4853C23EF920711F4FC
:103EE0000C94DA2E883CE3EF9E0711F40C94E62E36
:103EF000823C934F09F00ECC8EEA93EF9093B90772
:103F00008093B8070C948417893D23EF920711F42E
:103F10000C94172F8E3DE3EF9E0711F40C94302F75
:103F2000823D934F09F0F6CB80E390E09093BD077C
:103F30008093BC078091BE079091BF0760E370E05B
:103F400087569F4F0E94C6078EED93EF9093B90757
:103F50008093B8070C948417813224EF920711F4F0
:103F60000C94753008F5863FF3EF9F0711F40C941D
:103F7000A62F803124EF920711F40C941530823F64
:103F8000934F09F0C7CB1092BD071092BC0781E098
:103F90008093C9071092CE0784EB93EF9093B907F3
:103FA0008093B8070C9484178933F4EF9F0711F4BA
:103FB0000C94C73010F58233944F09F0ABCB80914D
:103FC000C0079091C107019799279093C1078093EB
:103FD000C00721E0803891050CF420E02093CE0743
:103FE0008038910514F40C94B73089E394EF9093E2
:103FF000B9078093B8070C9484178434F4EF9F07B3
:1040000011F40C9407318634944F09F083CB00915E
:10401000BE071091BF07C801C0960E941A0190E028
:104020009093BD078093BC0721E0803891050CF484
:1040300020E02093CE078038910514F00C940D31C8
:1040400086E794EF9093B9078093B8070C94841790
:10405000893FE4EF9E0711F40C948A3408F0ECC019
:10406000883C24EF920711F40C94B83308F04FC049
:104070008639F4EF9F0711F40C946C3280F58D377C
:10408000E4EF9E0711F40C94E7318B38F4EF9F07AF
:1040900011F40C9435328637944F09F03BCB83EA08
:1040A00090E00E941A01282F30E03093C707209338
:1040B000C607982F991F9927991F9093CE0786FBC3
:1040C000882780F98093CD0791110C94DF318DE71B
:1040D00094EF9093B9078093B8070C948417873BAB
:1040E000E4EF9E0711F40C945E33863CF4EF9F07D7
:1040F00011F40C94AB33843B944F09F00BCB84ED5B
:1041000094EF9093B9078093B8070C9484178E3D71
:10411000E4EF9E0711F40C94F13308F05EC0843D87
:1041200024EF9207B1F0863DE4EF9E0771F1803DE8
:10413000944F09F0EFCAD092BD07C092BC0780919E
:10414000BE079091BF0761E070E087569F4F0E94C5
:10415000C6070091BE071091BF0703561F4FC80145
:104160000E941A0190E00196811521E0920711F456
:104170000C94D2339093C7078093C6076091C6070B
:104180007091C707C8010E94C6078091BE07909131
:10419000BF07C2960E941A0190E09093BD078093DA
:1041A000BC0721E0803891050CF420E02093CE0775
:1041B0008038910514F40C94D8338EED94EF9093DD
:1041C000B9078093B8078DEB91E00E94BA0C87EC99
:1041D00091E00E94BA0C0C9484178D3E24EF920754
:1041E00011F40C941D34873FE4EF9E0711F40C94F6
:1041F0007034873E944F09F08DCA83E090E090932D
:10420000BD078093BC071092C9078091BE079091AB
:10421000BF0763E070E08C519F4F0E94C6078091FA
:10422000C90781110C941D3481E095EF9093B90773
:104230008093B8070C948417863425EF920711F405
:104240000C94803508F09BC08F30F5EF9F0711F478
:104250000C94DD34A0F58730E5EF9E0711F40C9443
:10426000BE348830F5EF9F0711F40C94C6348130CA
:10427000954F09F04FCA8091BE079091BF070197F3
:1042800099279093BF078093BE0721E0009709F01C
:1042900020E02093C90721E0803891050CF420E04C
:1042A0002093CE078038910514F40C94B63487E03F
:1042B00095EF9093B9078093B8070C9484178532D3
:1042C000E5EF9E0711F40C9400358434F5EF9F0759
:1042D00011F40C947A358831954F09F01BCA10926D
:1042E000BD071092BC078091BE079091BF0770E098
:1042F00060E088559F4F0E94C6076091BC0770918F
:10430000BD078091BE079091BF0786559F4F0E94C1
:10431000C6076091BC077091BD078091BE07909160
:10432000BF0783579F4F0E94C6070091BE07109199
:10433000BF07C80188529F4F0E941A01682F70E082
:104340007093BD076093BC0781E06115710509F0AA
:1043500080E08093C90781E0603871050CF480E04B
:104360008093CE07C8018A529F4F0E94C6070E94C1
:1043700090019093B9078093B8070C9484178A37FB
:10438000E5EF9E0711F40C94043608F047C086351B
:1043900025EF920711F40C9494358237E5EF9E07D0
:1043A00011F40C94E6358834954F09F0B3C983EACB
:1043B00090E00E941A0190E0AC01440F551F21E0EB
:1043C00047FF20E02093C807880F991F880F991F87
:1043D00099279093BD078093BC0783EA90E00E94E1
:1043E0001A01282F30E03093C7072093C607982F73
:1043F000991F9927991F9093CE0786FB882780F9EC
:104400008093CD07992311F40C94863586E595EFBA
:104410009093B9078093B8070C9484178B3A25EFD3
:10442000920781F008F07FC0873A954F09F072C972
:104430008091BE078093810783E090E09093BF074F
:104440008093BE078091C0079091C1078B59984017
:104450000E941A01182F90E09093BD078093BC072B
:1044600081ED90E00E941A011827812F90E090932F
:10447000BD078093BC0782ED90E00E941A01812362
:10448000682F70E07093BD076093BC078091BE07F2
:104490009091BF0706960E94C6076091BC07709175
:1044A000BD078091BE079091BF078A529F4F0E941F
:1044B000C6076091BC077091BD078091BE079091BF
:1044C000BF0788529F4F0E94C6078091C0079091F6
:1044D000C107019699279093C1078093C0078091E7
:1044E000BE079091BF07019799279093BF078093CC
:1044F000BE0721E0009709F020E02093C90721E0E2
:10450000803891050CF420E02093CE078038910587
:1045100014F00C947E368BEA95EF9093B907809354
:10452000B8070C9484178D3B25EF920711F40C9477
:1045300086368F3B954F09F0EDC88091BE0790916C
:10454000BF07019699279093BF078093BE0721E08C
:10455000009709F020E02093C90721E080389105F9
:104560000CF420E02093CE076091BC077091BD074A
:104570008E559F4F90E00E94C6078091C907811118
:104580000C948C368FEB95EF9093B9078093B80716
:104590000C94841780E190E09093BD078093BC0752
:1045A0008093370784E190EF0E94710883EA91EFCE
:1045B0009093B9078093B8070C94841787E190EF24
:1045C0000E94710882E390EF9093B9078093B80737
:1045D0000C9484178AE190EF0E94710887E591EFAF
:1045E0009093B9078093B8070C94841780E290EFFA
:1045F0000E9471088AED92EF9093B9078093B807F3
:104600000C94841783E290EF0E94710884E494EF85
:104610009093B9078093B8070C94841786E290EFC3
:104620000E94710884E192EF9093B9078093B807D4
:104630000C9484178CE290EF0E94710882EF91EF46
:104640009093B9078093B8070C9484178FE290EF8A
:104650000E94710884E590EF9093B9078093B807A2
:104660000C94841784E190EF9093B9078093B80776
:104670000C9484171092C7071092C6070C94431924
:1046800080E290E09093BD078093BC07809363071E
:104690000E948E021092BD071092BC0781E08093A9
:1046A000C9070E948E021092F3061092F40610922F
:1046B000F5061092F6061092F7061092F806109280
:1046C000F9061092FA068091BC070E94FE068091BE
:1046D000BA079091BB078093BE079093BF07809362
:1046E000820782E090E09093BD078093BC0780939F
:1046F00005078CED90E00E941A0190E09093BF07AF
:104700008093BE070E948E028091BE079091BF07E2
:10471000019799279093BF078093BE0721E00097E8
:1047200009F020E02093C907892B41F080E790EF42
:104730009093B9078093B8070C9484178CED90E0A0
:104740000E941A0190E09093BD078093BC072EE071
:1047500030E03093C7072093C60721E08E309105E3
:1047600009F020E02093C9070E9741F48DEC90EFFB
:104770009093B9078093B8070C9484177092BF0781
:104780006092BE071092BD071092BC0710928D0771
:1047900010928E070C949C191092C7071092C607AE
:1047A0000C94711A1092C7071092C6070C94851AC0
:1047B0001092C7071092C6070C94991A1092C70757
:1047C0001092C6070C94AD1A1092BD071092BC0748
:1047D00081E08093580610925D060E948E027092CE
:1047E000BD076092BC0785E08093050786ED90E0E9
:1047F0000E941A01282F30E03093BD072093BC0798
:10480000811156C090E080E090930D0780930C07D3
:1048100087ED90E00E941A01282F30E03093BD0709
:104820002093BC07811147C090E080E090930F0770
:1048300080930E078EE190E09093BF078093BE07B0
:104840009093BB078093BA0781E08093C80784EAFE
:1048500090E00E941A0190E09093BD078093BC07FE
:1048600084EB90E00E941A0190E00E94E1088091A0
:10487000BC079091BD079C012E7F33273093BF0763
:104880002093BE07807F99279093BD078093BC0734
:1048900021E0009709F020E02093C907892B71F4EB
:1048A00082EF90EF9093B9078093B8070C94841728
:1048B00081E090E0A9CF81E090E0B8CF1092BD07F1
:1048C0001092BC0781E08093C90784EF90EF90932A
:1048D000B9078093B8070C9484178091BE07909114
:1048E000BF0783549F4F0E941A0190E09093BD0729
:1048F0008093BC070C94D41A98EF892790E090938A
:10490000BD078093BC0780E290E09093C707809337
:10491000C6078091BC079091BD0721E080329105C8
:104920000CF420E02093C8078032910544F484E120
:1049300091EF9093B9078093B8070C94841723E004
:10494000959587952A95E1F79093BD078093BC07CD
:104950009093C1078093C0070E948E0285EA90E081
:104960000E941A0190E09093BD078093BC0781E0FC
:104970008093C80784EB90E00E941A0190E00E94A7
:10498000E10884EB90E00E941A0190E00196811505
:10499000E1E09E0741F19093C7078093C60780919D
:1049A000C607809363078091BC079091BD079C0167
:1049B00021603093BF072093BE07807F9927909393
:1049C000BD078093BC0721E0009709F020E0209309
:1049D000C907892B69F487E291EF9093B907809317
:1049E000B8070C9484171092C7071092C607D7CF48
:1049F0001092BD071092BC0781E08093C90789E23D
:104A000091EF9093B9078093B8070C948417809125
:104A1000BE079091BF0783549F4F0E941A0190E0F8
:104A20009093BD078093BC070C94551B0091C00761
:104A30001091C1078091640790916507800F911FC5
:104A40000E941A01282F30E03093BD072093BC0745
:104A5000807F809355068091660790916707800F4D
:104A6000911F0E941A01282F30E03093BD07209338
:104A7000BC07809356068091680790916907800F64
:104A8000911F0E941A01282F30E03093BD07209318
:104A9000BC078093570684EB90E00E941A0190E0D7
:104AA00001968115F1E09F0719F19093C707809354
:104AB000C6078091C6078093630784EB90E00E944D
:104AC0001A012CEE282730E03093BD072093BC0755
:104AD00091E0232B09F090E09093C9078C3E69F098
:104AE0008FED90EF9093B9078093B8070C948417DB
:104AF0001092C7071092C607DCCF83ED90E00E94AA
:104B00001A0190E09093BF078093BE0721E00097C1
:104B100009F020E02093C90721E0803891050CF4CA
:104B200020E02093CE079093BB078093BA071092A2
:104B300016071092170710925506109256061092FB
:104B400057060E9490019093B9078093B8070C9480
:104B5000841780911E07282F21702093C80790E0AA
:104B6000959587959093BD078093BC07222341F0CC
:104B700080E791EF9093B9078093B8070C9484175E
:104B80008FE0809336078FEF8093370780E890E0BF
:104B90009093BD078093BC0780E880938C0786EED6
:104BA00090E09093BF078093BE071092C9078EE6EE
:104BB00091EF0E9471088DEB95EF9093B907809368
:104BC000B8070C9484178091C907882341F080EDC1
:104BD00091EF9093B9078093B8070C94841782E003
:104BE00090E09093C1078093C0078DED90E00E9404
:104BF0001A01182F90E09093BD078093BC0788E8B6
:104C000090E00E941A018123282F30E03093BD07E5
:104C10002093BC073092C7072092C60791E0203F3F
:104C200031050CF490E09093C807803F40F482E88F
:104C300091EF9093B9078093B8070C94841786E896
:104C400090E00E941A018073282F30E03093BD0756
:104C50002093BC0791E0232B09F090E09093C907C3
:104C60008111E5CF8EE090E09093C1078093C0075B
:104C70008091C00780938B0786E890E00E941A011C
:104C80008F73282F30E03093BD072093BC0791E04D
:104C9000232B09F090E09093C907882341F082E923
:104CA00091EF9093B9078093B8070C9484171092F2
:104CB00038078DED90E00E941A0190E00196811571
:104CC00021E0920779F19093C7078093C6078091FE
:104CD000C6079091C70780938C0721E0009709F0E1
:104CE00020E02093C907892BD1F6109237078091D5
:104CF0001E078270282F30E03093BD072093BC0739
:104D000091E0232B09F090E09093C9071092CE0711
:104D100081110DC08DE991EF9093B9078093B80789
:104D20000C9484171092C7071092C607D0CF8093B7
:104D3000380781EF91EF9093B9078093B8070C94EF
:104D4000841780E890E00E941A0190E00196811596
:104D5000E1E09E0781F09093C7078093C60780919A
:104D6000C60780932F078FED90E09093BF07809345
:104D7000BE070C94161C1092C7071092C607EFCFFF
:104D8000F092BD07E092BC078FEF8093380780E870
:104D900090E00E941A0190E09093C1078093C007B1
:104DA000885298400E941A01809352078095282FBC
:104DB00030E03093BD072093BC0791E0232B09F02E
:104DC00090E09093C907882341F08BEB91EF90938B
:104DD000B9078093B8070C9484178DED90E09093F9
:104DE000BF078093BE071092C90785EA91EF9093A1
:104DF000B9078093B8070C94841781E890E00E946B
:104E00001A0190E09093BD078093BC0781E08093E6
:104E1000CB071092C80781E090E00E949108809132
:104E2000BC0780933007809350071092CB0783EA2A
:104E300090E00E941A01282F30E03093C70720939A
:104E4000C607982F991F9927991F9093CE0721E0A5
:104E5000182F107486FF20E02093CD07992309F4C2
:104E6000B6CE85E890E00E941A0190E00196811587
:104E7000F1E09F0749F19093C7078093C60780919F
:104E8000C60780933407112309F4A1CE85E890E08A
:104E90000E941A0190E00196811521E09207C9F065
:104EA0009093C7078093C6078091C6078093340705
:104EB00083ED91EF0E94710885E295EF9093B90719
:104EC0008093B8070C9484171092C7071092C607F6
:104ED000D6CF1092C7071092C607E6CFD092BF0771
:104EE000C092BE078091BE079091BF078F559F4F1C
:104EF0000E941A018F7080938107E4E08E9FC001A9
:104F000011249093BD078093BC071092C80782EDCF
:104F100090E00E941A0190E00E9491086091BC0705
:104F20007091BD078091BE079091BF0780529F4F3F
:104F30000E94C6078091BE079091BF078F559F4F73
:104F40000E941A01807F90E09C0135952795359548
:104F500027952093810714E0959587951A95E1F799
:104F60009093BD078093BC071092C80782ED90E034
:104F70000E941A0190E00E9491086091BC07709114
:104F8000BD078091BE079091BF078E519F4F0E9431
:104F9000C6078091BE079091BF070197992790930C
:104FA000BF078093BE0721E0009709F020E020931F
:104FB000C90721E0803891050CF420E02093CE074A
:104FC0008038910544F484EF91EF9093B907809372
:104FD000B8070C9484170E9490019093B9078093AE
:104FE000B8070C94841780E390E09093BD078093FA
:104FF000BC071092CE078EE192EF9093B907809391
:10500000B8070C94841780E290E09093BD078093DA
:10501000BC078091BC078093600783E090E0909389
:10502000BF078093BE0785E292EF0E94710884E576
:1050300092EF9093B9078093B8070C9484178091EE
:10504000BE079091BF07019799279093BF07809360
:10505000BE0789E292EF0E94710884E592EF909377
:10506000B9078093B8070C9484171092C807209151
:10507000BC073091BD073093C3072093C207C90115
:10508000880F991F99279093BD078093BC07409183
:10509000C807442329F081609093BD078093BC0723
:1050A00081E027FF80E08093C8076091BC07709182
:1050B000BD078091C0079091C10788559F4F0E94FE
:1050C000C6078091C807811108C080E592EF9093D0
:1050D000B9078093B8070C9484178091BE0790910C
:1050E000BF0784559F4F0E941A011092C807817014
:1050F0008AA31BA28AA19BA1E4E0880F991FEA95CD
:10510000E1F79093BD078093BC078093600780E52B
:1051100092EF0E94710884E592EF9093B907809313
:10512000B8070C9484178091BE079091BF07019730
:1051300099279093BF078093BE0721E0009709F05D
:1051400020E02093C90721E0803891050CF420E08D
:105150002093CE07892B41F48AE292EF9093B9070E
:105160008093B8070C9484170E9490019093B9071C
:105170008093B8070C9484171092C7071092C60743
:105180000C94341D8091BE079091BF078B569F4FA2
:105190000E941A0190E09093BD078093BC0781E0C4
:1051A0008093C80782E090E00E94E1088091BC07EC
:1051B0009091BD07837099279093BD078093BC079A
:1051C00021E0009709F020E02093C907892B11F016
:1051D0000C947A1D8091BE079091BF0784559F4F14
:1051E0000E941A018370282F30E03093BD0720936E
:1051F000BC0791E0232B09F090E09093C90781113F
:105200000C947A1D88E090E09093BD078093BC07D2
:1052100080935F0780EB90E00E941A0190E09093EA
:10522000BD078093BC076091BC077091BD0780915A
:10523000BE079091BF0780960E94C6072091BC07C9
:105240003091BD07C901807F9927892B41F1E091F9
:10525000BE07F091BF07EF5AF94F9685A901203894
:10526000310584F437FF02C0415F5F4F74E055950C
:1052700047957A95E1F7941B913E10F496870FC0FD
:105280009056FCCF64E0559547956A95E1F78FE01D
:105290004827940F81E0890F803AF0F586872F70B8
:1052A00033273093BD072093BC0781E08093C80764
:1052B00088E090E00E94E1088091BC07809383071A
:1052C0001092C8078091BE079091BF078C559F4FE1
:1052D0000E941A0190E00E94910883EA90E00E94E7
:1052E0001A01282F30E03093C7072093C607982F64
:1052F000991F9927991F9093CE0786FB882780F9DD
:105300008093CD07992351F080E992EF9093B907EC
:105310008093B8070C9484179B59B0CF82E090E03B
:105320009093C7078093C6078091BE079091BF07EF
:1053300021E0823091050CF420E02093C807029709
:1053400044F080EA92EF9093B9078093B8070C94E9
:1053500084178BED90E09093C7078093C6078091E8
:10536000BC079091BD0721E08B3D91050CF420E036
:105370002093C8078B3D910544F088E992EF909304
:10538000B9078093B8070C94841725E230E0309376
:10539000C7072093C60721E0853291050CF420E071
:1053A0002093C80785976CF60C948F1D6091BC07FD
:1053B0007091BD0785960E94C6070E949001909348
:1053C000B9078093B8070C948417D092BD07C09298
:1053D000BC0786E890E00E941A0180FBAA24A0F88E
:1053E000B12CB092BD07A092BC07B092BF07A092AB
:1053F000BE07C5018B569F4F0E941A01682F70E0AF
:105400007093BD076093BC07C5010B960E94C60749
:105410000091BC071091BD070F7011271093BD07B5
:105420000093BC071093C1070093C00783E890E086
:105430000E941A01282F30E03093C7072093C60737
:10544000982F991F9927991F9093CE0786FB88273D
:1054500080F98093CD07911108C08BEB92EF909368
:10546000B9078093B8070C9484178091BE07909178
:10547000BF07B80189569F4F0E94C6070C94021EB1
:1054800021E02093C807F7E48F279093BD0780930E
:10549000BC078091BC079091BD079093C107809392
:1054A000C00720916A0730916B078091C0079091E7
:1054B000C107820F931F0E941A01682F70E070933A
:1054C000BD076093BC078091BE079091BF078354CE
:1054D0009F4F0E94C6078091C807811108C084EDC4
:1054E00092EF9093B9078093B8070C94841780913A
:1054F000C007825090E09093C1078093C0078091CD
:10550000C0079091C107019699279093C107809396
:10551000C0078091BE07825090E09093BF078093B0
:10552000BE0721E0009709F020E02093C90721E0A1
:10553000803891050CF420E02093CE078038910547
:1055400044F48CEC92EF9093B9078093B8070C94D5
:1055500084170E9490019093B9078093B8070C9428
:1055600084170091BC071091BD070093390782E0B2
:1055700090E09093C7078093C60781E00230110541
:105580000CF480E08093C80781E00230110509F037
:1055900080E08093C90781E0023011050CF080E0C3
:1055A0008093CE070230110544F48BE093EF909383
:1055B000B9078093B8070C948417017011271093D2
:1055C000BD070093BC071093BF070093BE070B569F
:1055D0001F4FC8010E941A0190E00196811521E039
:1055E000920709F440C09093C7078093C607609163
:1055F000C6077091C707C8010E94C6070091BE0781
:105600001091BF07C80188529F4F0E941A01682F4E
:1056100070E07093BD076093BC07C8018A529F4F2A
:105620000E94C6078AE890E00E941A0190E09093D9
:10563000BD078093BC0727EF30E03093C707209366
:10564000C60721E0873F91050CF420E02093C807AE
:10565000873F91056CF489EF92EF9093B90780939F
:10566000B8070C9484171092C7071092C607BFCFD3
:1056700089EF92EF0E94710888E095EF9093B90747
:105680008093B8070C9484178AE890E00E941A016E
:1056900090E09093BD078093BC0721E0009709F04C
:1056A00020E02093C90721E0803891050CF420E028
:1056B0002093CE07803891050CF477CF21E082FF4C
:1056C00020E02093C80703E0959587950A95E1F7B8
:1056D0009093BD078093BC076091BC077091BD0794
:1056E0008091BE079091BF0749960E94C60788E047
:1056F00090E09093BD078093BC078091BE07909186
:10570000BF0768E070E045960E94C6070091BE079B
:105710001091BF07C801825098400E941A01682F5B
:1057200070E07093BD076093BC0781E0611571055F
:1057300009F080E08093C90781E0603871050CF4BE
:1057400080E08093CE07C80147960E94C6070C945C
:10575000661ED092BF07C092BE0780911E0780933D
:10576000840780911D0790E09093BD078093BC074C
:105770000C949C1EF092BD07E092BC078091BC0780
:105780009091BD0780958F7099279093BD07809366
:10579000BC078093810785E890E00E941A0190E0A1
:1057A0009093C1078093C007815F98400E941A01BF
:1057B00090E09093BD078093BC071092C80782EDDC
:1057C00090E00E941A0190E00E9491088091BC072D
:1057D0009091BD079093C1078093C0078E5E98405B
:1057E0000E941A018F70082F10E01093BD070093DC
:1057F000BC0791E00115110509F090E09093C907ED
:1058000080938007811108C0E8E3F3EFF093B907B4
:10581000E093B8070C9484178091BE079091BF075E
:105820008F569F4F0E941A0190E09093C707809374
:10583000C60721E0081719070CF420E02093C807D9
:1058400021E00817190709F020E02093C90708177D
:10585000190741F08CE393EF9093B9078093B80751
:105860000C9484170091BE071091BF070D561F4F6F
:10587000C8010E941A018150990B8F3F9807F9F0D7
:105880009093C7078093C6076091C6077091C707BA
:10589000C8010E94C6078091C6079091C70721E002
:1058A000009709F020E02093C907892B69F089E46B
:1058B00093EF9093B9078093B8070C948417F092F4
:1058C000C707E092C607E0CF6091BC077091BD07A3
:1058D0008091BE079091BF078F569F4F0E94C607C9
:1058E0005092BD074092BC078091BE079091BF07C0
:1058F0006FE070E08D569F4F0E94C60781ED90E0EB
:105900000E941A0190E09093BD078093BC0710920B
:10591000C8078091BE079091BF078B569F4F0E948A
:105920001A0190E00E9491086091BC077091BD0738
:105930008091BE079091BF078B569F4F0E94C6076C
:105940000C94C61E1092C7071092C6070C94DB1E5B
:105950008091C0079091C1078E5E98400E941A0105
:1059600090E014E0959587951A95E1F79093BD071F
:105970008093BC0785ED90E00E941A01282F30E04B
:105980003093C7072093C607982F991F9927991F0F
:105990009093CE0786FB882780F98093CD079923C3
:1059A00041F0EBE7F3EFF093B907E093B8070C94FD
:1059B00084176091BC077091BD078091BE079091DC
:1059C000BF0785579F4F0E94C6078091BC079091E3
:1059D000BD0721E087FF20E02093C807880F991FAB
:1059E00099279093BD078093BC079093C10780933C
:1059F000C007895C99400E941A01682F70E070937B
:105A0000BD076093BC078091BE079091BF07885582
:105A10009F4F0E94C6078091C0079091C1070196D1
:105A200099279093C1078093C007895C99400E9491
:105A30001A01682F70E07093BD076093BC078091D6
:105A4000BE079091BF0786559F4F0E94C6073092B0
:105A5000BD072092BC078091BE079091BF0760EF01
:105A600070E083579F4F0E94C6078EE693EF0E9417
:105A7000710880E893EF9093B9078093B8070C946E
:105A8000841780911D0790E0F4E095958795FA952D
:105A9000E1F79093BD078093BC0785ED90E00E94ED
:105AA0001A01982F991F9927991F9093C80790E082
:105AB000880F991F9C0133273093C7072093C6078F
:105AC000809384078091BE079091BF070197992723
:105AD0009093BF078093BE0721E0009709F020E074
